S00E0000627574746F6E2E737265637A
S113A00000E8FF1FADA40000ABA40000FBA4000007
S113A010000000000000000000000000000000003C
S113A02000000000000000000000000007A5000080
S113A0300000000000000000ADA50000AFA5000076
S113A04045A500004DA5000055A500005DA5000034
S113A050A5A50000A5A50000A5A50000A5A50000D4
S113A06065A500006DA5000075A500007DA5000094
S113A07085A500008DA5000095A50000A5A50000FC
S113A080A5A50000A5A50000A5A50000A5A50000A4
S113A090A5A50000A5A50000A5A500009DA500009C
S113A0A0A5A50000A5A50000A5A50000A5A5000084
S113A0B0A5A50000A5A50000A5A50000A5A5000074
S113A0C030B484480168802212010A4302600168A6
S113A0D0802292010A430260802252007E48016875
S113A0E0114301607D490B6813430B607C4B1C6872
S113A0F022431A60802292057A4B1C6814431C6028
S113A100794B1C680825AC431C601C68774D2540BE
S113A1101D60022304681C4304600C6823430B6025
S113A120012304681C430460086803430B607048FF
S113A13001680A43026030BC7047000000B5D221B8
S113A14049004843002101E000BF491C8142FBD380
S113A15000BD38B504008025AD0566480168294373
S113A16001602000C0B2FFF7E9FF614801680D43B8
S113A17005606420E4B2001BFFF7E0FF31BD70B559
S113A1800C0001252E00C0B2FFF7E3FF5A48016816
S113A190090B2940002906D12178012903D102267F
S113A1A00020207008E00068000B2840002803D03D
S113A1B02078002800D125703000C0B270BDF7B5FA
S113A1C0070002243878FFF7C4FF01254A4E30689F
S113A1D0C0082840002812D10198007801280ED127
S113A1E03878193038703878FFF7B3FF022438789C
S113A1F0642800D103240020019908700BE0306822
S113A200C0082840002806D001980078002802D110
S113A21028000199087002983168090B2940002927
S113A22006D10178012903D12C000021017008E036
S113A2303168090B2940002903D00178002900D195
S113A24005702000C0B2FEBDF7B5070003243878BE
S113A250FFF77FFF0125284E3068C00828400028FA
S113A26012D10198007801280ED138781938387045
S113A2703878FFF76EFF03243878002800D10224D1
S113A2800020019908700BE03068C00828400028BD
S113A29006D001980078002802D12800019908709E
S113A2A002983168090B2940002906D10178012957
S113A2B003D12C000021017008E03168090B29400A
S113A2C0002903D00178002900D105702000C0B214
S113A2D0FEBD0000388004400CB0044030B004409F
S113A2E074D0044014F10F4094F00F40FFEFFFFFCF
S10FA2F004F10F4008F10F4090F00F4003
S113A400FFFFFFFFFFFFFFFFFFFFFFFFFEFFFFFF59
S113A410F8B5012600273C003D0038006946487025
S113A420012069468870012069460870FFF748FEDC
S113A4300BE069462000C0B2FFF7A1FE0600641ECF
S113A4402000C0B2002800D13D003000C0B2012875
S113A45004D029D303281ED014D325E0380069463C
S113A46048702800C0B20028E3D169462000C0B279
S113A470FFF785FE0600641C2000C0B26428E4D304
S113A4800125E2E76A4600A9891C00A8401CFFF7E1
S113A49096FE0600D9E76A4600A9891C00A8401C5C
S113A4A0FFF7D2FE0600D0E7CFE7FEE772B6044816
S113A4B0044901600448804762B60448004700002C
S113A4C008ED00E000A0000039A500001DA5000073
S113A4D000F00DF8002801D000BF00BF00BF00BF8E
S113A4E0002000BF00BFFFF793FF00F002F8012037
S113A4F0704780B500F002F801BDFEE70746384614
S113A50000F002F8FBE7FEE780B500BF00BF024A97
S113A51011001820ABBEFBE72600020005480146E7
S113A52003B4684680F3098800BF00BF00BF00BFC2
S113A530FFF7CEFFA5EDF5FE002001490860704746
S113A5400081044000480047A5A5000000480047DA
S113A550A5A5000000480047A5A500000048004745
S113A560A5A5000000480047A5A500000048004735
S113A570A5A5000000480047A5A500000048004725
S113A580A5A5000000480047A5A500000048004715
S113A590A5A5000000480047A5A500000048004705
S113A5A0A5A5000000480047A5A50000FEE7FEE7BA
S903A51D3A
