S00C0000657874692E737265635E
S113A00000E8FF1F05A2000053A200005FA20000A9
S113A010000000000000000000000000000000003C
S113A02000000000000000000000000005A3000084
S113A030000000000000000007A3000009A30000C6
S113A0409DA20000A5A20000ADA20000B5A20000E0
S113A050FDA20000FDA20000FDA20000FDA2000080
S113A060BDA20000C5A20000CDA20000D5A2000040
S113A070DDA20000E5A20000EDA20000FDA20000A8
S113A080FDA20000FDA20000FDA20000FDA2000050
S113A090FDA20000FDA20000FDA20000F5A2000048
S113A0A0FDA20000FDA20000FDA20000FDA2000030
S113A0B0FDA20000FDA20000FDA20000ADA1000071
S113A0C070B42B480168802212010A4302600168BF
S113A0D0802252010A4302600168802292010A43ED
S113A0E00260802252002348016811430160224922
S113A0F00B6813430B60214B1C6814431C60204BFA
S113A1001C6822431A60802292051E4B1C6814436B
S113A1101C6020231C4C25681D4325601B4C2568AE
S113A1200826B54325602568194E2E402660022472
S113A1300568254305600D682C430C6001240568FF
S113A140254305600D682C430C60A0242403056896
S113A15025430560086804430C600E4801680A43FF
S113A16002600D4801680B43036070BC7047000037
S113A170388004400CB0044030B0044074D0044033
S113A18014C0044014F10F40D4F00F4094F00F4079
S113A190FFEFFFFF04F10F40C4F00F4080B5FFF75D
S113A1A08FFF8020000612490860FEE700B51148C1
S113A1B00168090E01290AD10168802252040A4368
S113A1C002600D480168802292050A4302600B4830
S113A1D00168090E012909D10168802252040A4349
S113A1E002600748016820220A43026000BD0000A3
S113A1F000E100E00CB004400CF10F4030B004402A
S113A200CCF00F4072B6044804490160044880470A
S113A21062B604480047000008ED00E000A000001A
S113A22091A2000075A2000000F00DF8002801D0F2
S113A23000BF00BF00BF00BF002000BF00BFFFF78A
S113A240ADFF00F002F80120704780B500F002F87D
S113A25001BDFEE70746384600F002F8FBE7FEE7DB
S113A26080B500BF00BF024A11001820ABBEFBE757
S113A270260002000548014603B4684680F30988B5
S113A28000BF00BF00BF00BFFFF7CEFFA5EDF5FE86
S113A29000200149086070470081044000480047DD
S113A2A0FDA2000000480047FDA20000004800474E
S113A2B0FDA2000000480047FDA20000004800473E
S113A2C0FDA2000000480047FDA20000004800472E
S113A2D0FDA2000000480047FDA20000004800471E
S113A2E0FDA2000000480047FDA20000004800470E
S113A2F0FDA2000000480047FDA2000000480047FE
S10DA300FDA20000FEE7FEE7FEE701
S113A400FFFFFFFFFFFFFFFFFFFFFFFFFEFFFFFF59
S903A275E5
