S01300004C6564426C696E6B696E672E73726563CE
S113A00000E8FF1F25A2000023A2000019A40000FD
S113A010000000000000000000000000000000003C
S113A02000000000000000000000000027A4000061
S113A0300000000000000000CDA40000CFA4000038
S113A04065A400006DA4000075A400007DA40000B8
S113A050C5A40000C5A40000C5A40000C5A4000058
S113A06085A400008DA4000095A400009DA4000018
S113A070A5A40000ADA40000B5A40000C5A4000080
S113A080C5A40000C5A40000C5A40000C5A4000028
S113A090C5A40000C5A40000C5A40000BDA4000020
S113A0A0C5A40000C5A40000C5A40000C5A4000008
S113A0B0C5A40000C5A40000C5A40000C5A40000F8
S113A0C037480168802252010A43026001688022F5
S113A0D092010A4302608020400032490A68024328
S113A0E00A6031490A681043086020202F490A6831
S113A0F002430A60802189052D4A13680B431360CB
S113A1002C4A1368194311602B490A6810430860EC
S113A1107047000000B5D22149004843002101E006
S113A12000BF491C8142FBD300BD70B58024A40547
S113A1302048016821430160202520480168294303
S113A14001601F4E3000FFF7E5FF1E4801680C4315
S113A1500460194801680D4305603000FFF7DAFF19
S113A16070BD70B504008025AD051248016829430F
S113A1700160202611480168314301602000C0B20B
S113A180FFF7C8FF0F4801680D4305600A480168DE
S113A1900E4306606420E4B2001BFFF7BBFF70BDF2
S113A1A03880044014C0044074D00440D4F00F40FC
S113A1B014F10F4008F10F40C8F00F40C4F00F40F5
S113A1C0C409000004F10F4010B5002404E020008D
S113A1D0C0B2FFF7C6FFA41C200040B26528F6D326
S113A1E0642404E02000C0B2FFF7BBFFA41E2000DB
S113A1F040B20028F6D510BD38B5FFF761FF012441
S113A200250002E0FFF791FF6D1C2800C0B20B2867
S113A210F8DB2000C0B20628F1DAFFF7D5FF641C92
S113A220F7E7FEE772B60448044901600448804732
S113A23062B604480047000008ED00E000A00000FA
S113A24059A400003DA4000000F00DF8002801D03E
S113A25000BF00BF00BF00BF002000BF00BFFFF76A
S10DA260CBFF00F0D5F80120704791
S113A400FFFFFFFFFFFFFFFFFFFFFFFFFEFFFFFF59
S113A41080B500F003F801BDFEE7000007463846AA
S113A42000F002F8FBE7FEE780B500BF00BF024A78
S113A43011001820ABBEFBE72600020005480146C8
S113A44003B4684680F3098800BF00BF00BF00BFA3
S113A450FFF7FAFEA5EDF5FE0020014908607047FC
S113A4600081044000480047C5A40000004800479C
S113A470C5A4000000480047C5A4000000480047E8
S113A480C5A4000000480047C5A4000000480047D8
S113A490C5A4000000480047C5A4000000480047C8
S113A4A0C5A4000000480047C5A4000000480047B8
S113A4B0C5A4000000480047C5A4000000480047A8
S113A4C0C5A4000000480047C5A40000FEE7FEE75D
S903A43D1B
