S00B00007069742E73726563CC
S113A00008E8FF1FD9A400003BA5000047A50000F5
S113A010000000000000000000000000000000003C
S113A020000000000000000000000000EDA500009A
S113A0300000000000000000EFA50000F1A50000F2
S113A04085A500008DA5000095A500009DA5000034
S113A050E5A50000E5A50000E5A50000E5A50000D4
S113A060A5A50000ADA50000B5A50000BDA5000094
S113A070C5A50000CDA50000D5A50000E5A50000FC
S113A080E5A50000E5A50000E5A50000E5A50000A4
S113A090E5A50000E5A5000055A10000DDA5000030
S113A0A0E5A50000E5A50000E5A50000E5A5000084
S113A0B0E5A50000E5A50000E5A50000E5A5000074
S113A0C0F8B52B4C20782B49097847182A4D287865
S113A0D02A490978461800F0A2F900F0C9F904E009
S113A0E02748016820220A43026026480178227822
S113A0F0914206D224480168802292050A430260F4
S113A10011E039000278C9B291420CD31F490A68A0
S113A11080239B0513430B6001783A00D2B291422D
S113A12001D3002101701A4801782A789142D7D3CB
S113A13031000278C9B29142D7D316490A68202364
S113A14013430B6001783200D2B29142CDD3002187
S113A1500170CAE71048016801220A4302600C48F2
S113A1600178491C017007480178491C0170704747
S113A17000E0FF1F01E0FF1F02E0FF1F03E0FF1FDD
S113A180C8F00F4004E0FF1F08F10F4004F10F4036
S113A19005E0FF1FC4F00F400C71034030B40122EE
S113A1A00EE00368C31844680830144202D04D46D8
S113A1B06D1E64191D6825601B1D241D091FF9D11E
S113A1C00168001D0029ECD130BC704710B5074967
S113A1D079441831064C7C44163404E0081D0A689E
S113A1E0891888470100A142F8D110BD100300006E
S10FA1F020030000050101010000000034
S113A400FFFFFFFFFFFFFFFFFFFFFFFFFEFFFFFF59
S113A4100121C006C00E81402248016070472248D5
S113A4200168802252010A4302600168802292017D
S113A4300A430260802040001C490A6802430A6003
S113A4401B490A68104308608020800519490A687E
S113A45002430A602021184A13680B431360174A09
S113A460136818431060164802681143016070476E
S113A47080B51620FFF7CCFF124801688022120431
S113A4800A430260104800210160016801600F481E
S113A4900F4908600F4802210160016801220A4344
S113A4A0026001BD00E100E03880044074D0044043
S113A4B014C0044014F10F40D4F00F4008F10F40D1
S113A4C0C4F00F403C80044000700340FFFF9F0035
S113A4D0007103400871034072B6044804490160E6
S113A4E00448804762B604480047000008ED00E0D5
S113A4F000A0000079A500005DA50000A1FCFFFFFD
S113A50008000000F0FCFFFF00E0FF1F0000000057
S113A51000F00DF8002801D0FFF758FE00BF00BF7F
S113A520002000BF00BFFFF7CBFD00F002F80120C0
S113A530704780B500F002F801BDFEE707463846D3
S113A54000F002F8FBE7FEE780B500BF00BF024A57
S113A55011001820ABBEFBE72600020005480146A7
S113A56003B4684680F3098800BF00BF00BF00BF82
S113A570FFF7CEFFA5EDF5FE002001490860704706
S113A5800081044000480047E5A50000004800475A
S113A590E5A5000000480047E5A500000048004785
S113A5A0E5A5000000480047E5A500000048004775
S113A5B0E5A5000000480047E5A500000048004765
S113A5C0E5A5000000480047E5A500000048004755
S113A5D0E5A5000000480047E5A500000048004745
S113A5E0E5A5000000480047E5A50000FEE7FEE7FA
S105A5F0FEE780
S903A55DFA
