S00B00007274632E73726563D0
S113A00008E8FF1F45AB000057A90000C3AA0000E1
S113A010000000000000000000000000000000003C
S113A020000000000000000000000000A7AB0000DA
S113A0300000000000000000B3AB000059AC0000B9
S113A040F1AB0000F9AB000001AC000009AC00006A
S113A05051AC000051AC000051AC000051AC000008
S113A06011AC000019AC000021AC000029AC0000C8
S113A07031AC000039AC000041AC000051AC000030
S113A08051AC000051AC000051AC000051AC0000D8
S113A09051AC000051AC000051AC000049AC0000D0
S113A0A051AC000051AC000051AC000051AC0000B8
S113A0B051AC000051AC000051AC000051AC0000A8
S113A0C0F0B50E005E400125ED072E40B446AE0A01
S113A0D0DF184C18F44208D2F7420ED2640D01D0B6
S113A0E07F0D12D100206146F0BD05D1F74201D8A1
S113A0F07F0D05D10020C143F0BDFBD1640DF9D023
S113A1000020C143490549088FE0E419C902DB0274
S113A11029432B43DB0A460DC00231438E4630B43B
S113A12087B295B27D432E0CADB2140C7C43A419B6
S113A130260C240425439CB27C43A419190C7943AE
S113A140270CC919A4B20F043C43090C000C97B2A4
S113A15047432E0CBE193543ADB2170C4743360C9A
S113A160BF19A6B2BF193E043543240C3E0C361960
S113A1709FB24743BF19BCB23E0C89191F0C474319
S113A1807F183E043443390C704680B297B247437B
S113A1902E0CBE193543ADB2170C4743360CBF190C
S113A1A0A6B2BF193E043543240C3E0C36199FB2A7
S113A1B04743BF19BCB23E0C89191F0C47437F1893
S113A1C03E043443390C77463F0C90B278432E0C4E
S113A1D080190604ADB22E43050CA0B22D18120C42
S113A1E07A435019020C80B2240CA4189AB27A4310
S113A1F0121914042043120C89181B0C7B43C91830
S113A20030BCEF0A394203D1B61940414941641EBA
S113A2106F12BF0DE41B0BDBFF19BC4211DA2405DE
S113A22000274208AE417841614166463143F0BDA2
S113A230641C05D1401C6141CF0201D34908F4E7F5
S10BA24050E75DE7010503018D
S113A400FFFFFFFFFFFFFFFFFFFFFFFFFEFFFFFF59
S113A410F0B40125ED070F005F404FD48B4200D10B
S113A420824205D98446100062468C461900634670
S113A430DF184C18640D7F0D3AD0661C760537D0B2
S113A440E61B352E34DCDB022B43DB0A0C0DC90280
S113A4502943C912202E0DDB1700203E06D01F0011
S113A460F741F3405F400026012A7741C01871414B
S113A4700DD217E01700F741F2405740F3415A401C
S113A480B340F3405A400026801859410AD3A21C15
S113A49052050FD0C207012F724117004008CB07A5
S113A4A018434908641C24054208AF4170416141C6
S113A4B0F0BC7047641C21050020F9E76B400AE0FA
S113A4C06B40ABE7F742F3D1E943F1E72442EFD124
S113A4D000200021ECE70C00871A9C4105D2C01B28
S113A4E0A141D219634169406B40AE0ADF184C1890
S113A4F0F442E7D2640D7F0DE8D0E61B362ED7DC9C
S113A500DB022B43DB0AA4460C0DC9022943C90A0A
S113A510012E28DC04D1D6075208DF073A435B0832
S113A520EF0A76429041994114D039423BD1B61991
S113A53040414941761C394204D1761C00184941F6
S113A5403942FAD0B9436746B74208D9A41B240557
S113A5502143ADE70042EAD13642E8D1A8E7E40A54
S113A560E1070020A4E7202E0BDD203E1F00F3406E
S113A570F7415F40012A002257417E4298419141B0
S113A5800BE01700F741F2405740F3415A40B34003
S113A590F3405A407E42904199410A0303D2641E1B
S113A5A0B619404149410027641E24054208AE41C2
S113A5B078416141F0BC7047F8B584B0002503953B
S113A5C0534800784A490978401869464872534804
S113A5D000784849097840186946087200F0A0F8E4
S113A5E000F0C7F804E04448016820220A430260EE
S113A5F003986946497A484300F0F4F801002000C2
S113A60000F038F906006846007A684300F0EAF87A
S113A6100100200000F02EF907003848046838488B
S113A620006800F0DFF800F07DF936A20CCAFFF7ED
S113A63047FD00900191A4B2200000F08DF90022A2
S113A640324B00F099F9009A019BFFF7E1FE00F00C
S113A650F4F904002E48007800F0C4F8010030003A
S113A66000F01CFA06D22B480168802292050A43A6
S113A670026019E06846407A00F0B4F8310000F056
S113A68021FA11D824480168802292050A43026005
S113A6906846407A00F0A6F80100300000F012FA93
S113A6A002D80398401C03901C48007800F09AF8E4
S113A6B00100380000F0F2F995D36846007A00F002
S113A6C091F8390000F0FEF992D808480168202278
S113A6D00A4302606846007A00F084F801003800FA
S113A6E000F0F0F984D86D1C82E700BFC4F00F407D
S113A6F001E0FF1F03E0FF1FC8F00F4004D0034038
S113A70000D00340FCA9F1D24D62404000408F408C
S113A71000E0FF1F08F10F4004F10F4002E0FF1FAB
S113A72024480168802252010A43026001688022A1
S113A73092010A430260802040001F490A680243D4
S113A7400A601E490A6810430860802080051C497D
S113A7500A6802430A6020211A4A13680B431360F3
S113A760194A1368184310601848026811430160BD
S113A770704700B516480168C02212030A430260FC
S113A78014480168802292050A430260124801219C
S113A7900160026801239A43026010480268114074
S113A7A0002902D000210E4A1160016810220A43D8
S113A7B0026000BD3880044074D0044014C00440DA
S113A7C014F10F40D4F00F4004F10F40C4F00F40D7
S113A7D0007004403C80044010D0034014D0034077
S113A7E000D003409D2102000AD002D4491E9218D1
S113A7F0FCD5C905100A1206524100D3012A48416A
S113A800704700000122D20703004B402ED4431AA4
S113A81001D2C01AC91830B44B180418240E1B0EE8
S113A82022D0FF2C20D0E31A182B1DDC090211437F
S113A830C40D641E0002104394461925ED1A0A0043
S113A840AA40D940451801D36D08A41CE405D209D7
S113A850280A2D062A436546AA41604103181B0EA7
S113A860FF2B01D3C00DC00530BC7047514006E03A
S113A8705140CCE70122D20703004B40F8D4431ADD
S113A88003D2C01AC9185040514030B44B180902C1
S113A89011430418240E1B0E40D0FF2C3AD025007F
S113A8A09D410BD31ED8C50D4002401A0BD3ED05B4
S113A8B00100400AC90591416841D5E7C50D400230
S113A8C04918401AD0D001214008491C0018FCD571
S113A8D08C4204D36D1A000AED054019C4E7E8055B
S113A8E01040C1E7182DBFDCAC1C0D00E140E54170
S113A8F04D40012D4941C40D00021043451A01D4B5
S113A9006D199543641EE405280A2D06954160419E
S113A91030BC7047FF2BA7D1D843A5E72442A3D16D
S113A9200020A1E7012212060118CA420AD28A4273
S113A9300DD83822120609098918C20FD20711430B
S113A9404007704700D049080909014301E0C10FDD
S113A950C90700207047FEE7010042221201D21EFF
S113A960004207D002D4521E0018FCD5C10A40058B
S113A9701205891870470000F0B40E005E400125EE
S113A980ED072E40B446AE0ADF184C18F4423BD211
S113A990F74241D2640D43D07F0D38D0E41BC90285
S113A9A0DB0229432B43CF0ADB0A0600B61A9F4178
S113A9B004D2641EB6197F41B6185F416812800D37
S113A9C024180018844222DAE80C0021B6197F41C9
S113A9D0B61A9F4102D2B6185F413F1C404149411B
S113A9E0F4D3241C21DD2405B6197F41B61A9F41F6
S113A9F005D33743C60737430026012F7041614111
S113AA0066463143F0BC7047FCD1F74205D20020C2
S113AA10C14349054908F3E704D00020C143F1E7E5
S113AA207F0DFAD000206146ECE72442FAD1401CA5
S113AA3061410F03F6D30020E2E7012252054B18CF
S113AA40DA4201D9581570475B0D0722D2019B1ACF
S113AA5010D9FF2B1DD2DB050122D2070A40134374
S113AA600903020D1143490AC200524100D9491C8D
S113AA70C81870470AD1800A0A0302435212921C72
S113AA8004D9D3070B40D00518437047C80FC0073B
S113AA907047C80F0002FF30C00570470CB4012294
S113AAA012060318DA4207D84B18DA4204D8020017
S113AAB00A43921802D288420CBC7047FCD08142EF
S113AAC0FAE7FEE70CB4012212060318DA4207D8AB
S113AAD04B18DA4204D802000A43921802D2814287
S113AAE00CBC7047FCD088420CBC704730B40122C7
S113AAF00EE00368C31844680830144202D04D467F
S113AB006D1E64191D6825601B1D241D091FF9D1C4
S113AB100168001D0029ECD130BC704710B507490D
S113AB2079441831064C7C44163404E0081D0A6844
S113AB30891888470100A142F8D110BD2C000000FB
S113AB403C00000072B60448044901600448804790
S113AB5062B604480047000008ED00E000A00000D1
S113AB60E5AB0000C9AB000085FFFFFF0400000057
S113AB70D4F6FFFF00E0FF1F0000000000F00DF816
S113AB80002801D0FFF7CAFF00BF00BF002000BFAC
S113AB9000BFFFF711FD00F002F80120704780B5F7
S113ABA000F002F801BDFEE70746384600F002F85F
S113ABB0FBE7FEE780B500BF00BF024A1100182082
S113ABC0ABBEFBE7260002000548014603B4684615
S113ABD080F3098800BF00BF00BF00BFFFF7CEFFAE
S113ABE0A5EDF5FE0020014908607047008104408E
S113ABF00048004751AC00000048004751AC000039
S113AC000048004751AC00000048004751AC000028
S113AC100048004751AC00000048004751AC000018
S113AC200048004751AC00000048004751AC000008
S113AC300048004751AC00000048004751AC0000F8
S113AC400048004751AC00000048004751AC0000E8
S10DAC500048004751AC0000FEE785
S903ABC988
