S01300007379737469636B5F6C69622E7372656371
S113A00008E8FF1F25A2000083A200008FA2000021
S113A010000000000000000000000000000000003C
S113A02000000000000000000000000035A3000054
S113A030000000000000000037A300008FA1000012
S113A040CDA20000D5A20000DDA20000E5A2000020
S113A0502DA300002DA300002DA300002DA30000BC
S113A060EDA20000F5A20000FDA2000005A300007F
S113A0700DA3000015A300001DA300002DA30000E4
S113A0802DA300002DA300002DA300002DA300008C
S113A0902DA300002DA300002DA3000025A3000084
S113A0A02DA300002DA300002DA300002DA300006C
S113A0B02DA300002DA300002DA300002DA300005C
S113A0C019480168802252010A4302600168802213
S113A0D092010A4302608020400014490A68024346
S113A0E00A6013490A6810430860802080051149FA
S113A0F00A6802430A6020210F4A13680B43136065
S113A1000E4A1368184310600D4802681143016039
S113A11070470C48002101600B4A0C4B1A600C4A32
S113A12011600721016070473880044014C0044066
S113A13074D0044014F10F40D4F00F4008F10F40E4
S113A140C8F00F4010E000E03233030014E000E0F8
S113A15018E000E080B5FFF7B3FFFFF7DAFF13481C
S113A1600178642907D312490A6880239B051343A5
S113A1700B60002101700F4801781029EFD30E49BC
S113A1800A68202313430B6000210170E7E70B48A2
S113A1900068802149020840000C04480178491CE9
S113A1A0017004480178491C0170704701E0FF1FE9
S113A1B00CF10F4000E0FF1FCCF00F4010E000E076
S113A1C070B40123002413E00168001D194202D079
S113A1D04D466D1E49190C60091D121F042AFAD23E
S113A1E00D00960701D50C80AD1C1A4000D02C70D0
S113A1F00268001D002AE7D170BC704710B50749FA
S113A20079441831064C7C44163404E0081D0A686D
S113A210891888470100A142F8D110BD2C00000024
S113A2203800000072B604480449016004488047BD
S113A23062B604480047000008ED00E000A00000FA
S113A240C1A20000A5A2000079FFFFFF04000000E6
S113A25000E0FF1F0000000000F00DF8002801D00E
S113A260FFF7CCFF00BF00BF002000BF00BFFFF717
S113A27071FF00F002F80120704780B500F002F889
S113A28001BDFEE70746384600F002F8FBE7FEE7AB
S113A29080B500BF00BF024A11001820ABBEFBE727
S113A2A0260002000548014603B4684680F3098885
S113A2B000BF00BF00BF00BFFFF7CEFFA5EDF5FE56
S113A2C000200149086070470081044000480047AD
S113A2D02DA30000004800472DA3000000480047BC
S113A2E02DA30000004800472DA3000000480047AC
S113A2F02DA30000004800472DA30000004800479C
S113A3002DA30000004800472DA30000004800478B
S113A3102DA30000004800472DA30000004800477B
S113A3202DA30000004800472DA30000004800476B
S10BA3302DA30000FEE7FEE787
S113A400FFFFFFFFFFFFFFFFFFFFFFFFFEFFFFFF59
S903A2A5B5
