S00C0000756172742E737265635C
S113A00048E9FF1F71AF0000ABA10000E7A1000009
S113A010000000000000000000000000000000003C
S113A0200000000000000000000000008BAD0000F4
S113A0300000000000000000BBAD0000E3AF000022
S113A04061B0000069B0000071B0000079B0000098
S113A050B9B00000B9B00000B9B00000B9B0000058
S113A06081B0000089B0000091B0000099B00000F8
S113A070CDA50000A1B00000A9B00000B9B0000057
S113A080B9B00000B9B00000B9B00000B9B0000028
S113A090B9B00000B9B00000B9B00000B1B0000020
S113A0A0B9B00000B9B00000B9B00000B9B0000008
S113A0B0B9B00000B9B00000B9B00000B9B00000F8
S113A0C09D2102000AD002D4491E9218FCD5C9056C
S113A0D0100A1206524100D3012A48417047000079
S113A0E030B405004D400122D20715404B18041826
S113A0F0240E25D01B0E2CD0FF2C31D0FF2B34D0B6
S113A100E41A000209021043114343084808D10D20
S113A1101B1A02D2641EDB181B18DB18834200D3FF
S113A1201B1A4941F9D37F3423DDFF2C05DAE405FA
S113A13048086041284330BC7047FF20C005F9E758
S113A14028001B0E03D0FF2BF5D14902F3D0D043D6
S113A150F1E7FF2C01D14002F9D1FF20C005E9E766
S113A1604002F4D1FF2BF8D1F1E728004902E2D0F4
S113A170EDE70B0200202442DCD15B129B1CD9D9F1
S113A180D805D7E70CB4012212060318DA4207D81F
S113A1904B18DA4204D802000A43921802D28842C9
S113A1A00CBC7047FCD08142FAE7FEE70122D207DB
S113A1B00118090E7F3910D449421F310FD40018F9
S113A1C005D2C0011043C84000D5D0437047C00138
S113A1D01043C84005D440427047002070470042F5
S113A1E0F3D510007047FEE70CB4012212060318E1
S113A1F0DA4207D84B18DA4204D802000A4392180C
S113A20002D281420CBC7047FCD088420CBC70471F
S107A2100100000045
S113A400FFFFFFFFFFFFFFFFFFFFFFFFFEFFFFFF59
S113A4100121C006C00E8140704801607047FEB53E
S113A420FE218905FC2189050191FFF749FE010000
S113A4306B48FFF755FE0290042544E0FE2080059A
S113A440390000F02DF90199FFF79CFE3AD2FE2065
S113A4508005390000F024F901903000FFF7A6FED2
S113A4600400A4B2641C684605702BE02800C0B246
S113A470FFF726FE01000298FFF732FE06003000C7
S113A480FE218905FFF7B0FE1CD830005549FFF7BF
S113A49079FE17D23000FFF789FE80B2FFF710FE75
S113A4A00100300000F0FCF8070038000199FFF7C4
S113A4B069FEC3D201973000FFF778FE0400A4B20E
S113A4C0684605706D1C2800C0B22128CED34649C9
S113A4D00878E02202400A701F200A78230A034009
S113A4E013430B7041490A7800220A700A78144316
S113A4F00C7069460978491E08403D490870F7BD4B
S113A50070B5802189003B4A13680B4313603A4AB3
S113A5103A4B1C6814401C60394C25682A40226060
S113A5201A680A431A6022681143216035490A688F
S113A5308023DB0013430B6033490A68334B134019
S113A5400B600A68324B13400B600A688023DB04FB
S113A55013430B602F4C2178F3220A402270EF251D
S113A5602D490A782A400A700A78FD2313400B709B
S113A570DF261D490A7832400A70FFF750FF27484A
S113A58001780D400570264801780E4006700C20B5
S113A590FFF73EFF207820210143217020780C2111
S113A5A00143217070BD00B5002109E01D4A1278F5
S113A5B01206FBD50A00D2B2825C1B4B1A70491CEE
S113A5C00A00D2B2825C002AF0D100BD80B51748DF
S113A5D015490978017000F0BBF801BD00E100E005
S113A5E00000A04B01F8FF4500A0064001A0064072
S113A5F00AA0064038800440FFF8FFFF049004409E
S113A600089004403480044004800440FFFFFEFFAF
S113A610FFFFFFF303A0064002A0064006A0064089
S113A62005A0064004A0064007A0064047E1FF1F1E
S113A6300122D20703004B402ED4431A01D2C01A80
S113A640C91830B44B180418240E1B0E22D0FF2C4A
S113A65020D0E31A182B1DDC09021143C40D641E1B
S113A6600002104394461925ED1A0A00AA40D94065
S113A670451801D36D08A41CE405D209280A2D0647
S113A6802A436546AA41604103181B0EFF2B01D3E0
S113A690C00DC00530BC7047514006E05140CCE7C6
S113A6A00122D20703004B40F8D4431A03D2C01A44
S113A6B0C9185040514030B44B18090211430418D2
S113A6C0240E1B0E40D0FF2C3AD025009D410BD305
S113A6D01ED8C50D4002401A0BD3ED050100400AF7
S113A6E0C90591416841D5E7C50D40024918401A92
S113A6F0D0D001214008491C0018FCD58C4204D359
S113A7006D1A000AED054019C4E7E8051040C1E7D9
S113A710182DBFDCAC1C0D00E140E5414D40012D7E
S113A7204941C40D00021043451A01D46D199543E3
S113A730641EE405280A2D069541604130BC70472B
S113A740FF2BA7D1D843A5E72442A3D10020A1E73A
S113A75038B5040000F045F8002826D120780028F8
S113A76009D02448244909785022514340182349E8
S113A77009782278425421480178491C01702178D3
S113A7800A2912D11C490278521E1A4B0C78502502
S113A7906C431A55012202700878401C8007800F10
S113A7A0087017480178491C017031BD15491148DA
S113A7B00A7850235A4380180A78521C9207920F41
S113A7C00A700F490A78521E0A70704700B50020BB
S113A7D00C490978084A1278914200D10120C0B28C
S113A7E000BD00B5002006490978042900D10120E4
S113A7F0C0B200BD04E0FF1F45E1FF1F00E0FF1FE2
S113A80046E1FF1F44E1FF1F7FB50024784D002679
S113A81008E0684603C822002B0000F0EDF80400AD
S113A8200D00761C3000C0B200F0A8F902AA0CCAD0
S113A83000F0BEF9EDD32000290004B070BD00B5CE
S113A840010000200A00D2B2303A0A2A02D230397A
S113A850080006E00A00D2B2413A062A01D237398A
S113A8600800C0B200BD30B5010000221300100082
S113A8700120491C00E05B1C1C00E4B20C5D0D2CA3
S113A8802ED00400E4B2002C2AD01C00E4B20C5DEB
S113A8901D00EDB2002D04D1E4B2532CEBD0100016
S113A8A0EAE71D00EDB2012D0DD12500EDB2303DDA
S113A8B00A2D06D2E4B2342C01D11000DCE75B1C73
S113A8C0DAE71000D8E72500EDB2413D062D03D3A9
S113A8D0E4B2303C0A2C01D25B1CCDE71000CBE77C
S113A8E0C0B230BDF8B50024451C8E1EA878FFF711
S113A8F0A6FF0700FFB210204743E878FFF79FFF49
S113A900381802214843F6B2361FB04200D1012460
S113A9102000C0B2F2BDF8B5002634003500C71CD3
S113A92015E03000C0B2385CFFF789FF0094C0B274
S113A9301021484304003000C0B238184078FFF7B3
S113A9407EFF010020004018009C2418B61C300033
S113A950C0B2385C0D28E4D1E0B2FF2800D1012553
S113A9602800C0B2F2BDF4B586B000273D00401DFA
S113A97005900839684601746846007C441E2BE043
S113A9800598210049B2405CFFF759FF06002800F2
S113A99000F0F4F802900391F6B2300000F0EEF803
S113A9A0009001916846007C210049B2401A401E83
S113A9B000F0F4F802000B0000200E49FFF724FF1A
S113A9C0009A019B00F018F8029A039B00F009F921
S113A9D000F0DCF90500641E200040B20028CFD549
S113A9E00698854200D101273800C0B207B0F0BDF7
S113A9F00000F03F00003040F0B50E005E4001253D
S113AA00ED072E40B446AE0ADF184C18F44208D2C3
S113AA10F7420ED2640D01D07F0D12D100206146A1
S113AA20F0BD05D1F74201D87F0D05D10020C14307
S113AA30F0BDFBD1640DF9D00020C143490549089C
S113AA408FE0E419C902DB0229432B43DB0A460DDC
S113AA50C00231438E4630B487B295B27D432E0C8A
S113AA60ADB2140C7C43A419260C240425439CB2D7
S113AA707C43A419190C7943270CC919A4B20F04F7
S113AA803C43090C000C97B247432E0CBE193543C6
S113AA90ADB2170C4743360CBF19A6B2BF193E041A
S113AAA03543240C3E0C36199FB24743BF19BCB240
S113AAB03E0C89191F0C47437F183E043443390C5C
S113AAC0704680B297B247432E0CBE193543ADB2DF
S113AAD0170C4743360CBF19A6B2BF193E043543C1
S113AAE0240C3E0C36199FB24743BF19BCB23E0C2E
S113AAF089191F0C47437F183E043443390C7746A9
S113AB003F0C90B278432E0C80190604ADB22E434C
S113AB10050CA0B22D18120C7A435019020C80B205
S113AB20240CA4189AB27A43121914042043120C68
S113AB3089181B0C7B43C91830BCEF0A394203D176
S113AB40B61940414941641E6F12BF0DE41B0BDB73
S113AB50FF19BC4211DA240500274208AE417841AE
S113AB60614166463143F0BD641C05D1401C61411E
S113AB70CF0201D34908F4E750E75DE70100422220
S113AB801201D21E004207D002D4521E0018FCD576
S113AB90C10A400512058918704700000100EED56E
S113ABA04042F446FFF7EBFF0122D207114360470E
S113ABB030B4012464054D00EC420BD85D00EC4236
S113ABC008D80C001C4364000443144304D2994283
S113ABD000D1904230BC7047FCD08B42FAD1824203
S113ABE0F8E7F0B40125ED070F005F404FD48B4226
S113ABF000D1824205D98446100062468C46190071
S113AC006346DF184C18640D7F0D3AD0661C760538
S113AC1037D0E61B352E34DCDB022B43DB0A0C0D6C
S113AC20C9022943C912202E0DDB1700203E06D08D
S113AC301F00F741F3405F400026012A7741C01806
S113AC4071410DD217E01700F741F2405740F3412C
S113AC505A40B340F3405A400026801859410AD361
S113AC60A21C52050FD0C207012F724117004008E1
S113AC70CB0718434908641C24054208AF417041BE
S113AC806141F0BC7047641C21050020F9E76B406A
S113AC900AE06B40ABE7F742F3D1E943F1E7244222
S113ACA0EFD100200021ECE70C00871A9C4105D26B
S113ACB0C01BA141D219634169406B40AE0ADF1841
S113ACC04C18F442E7D2640D7F0DE8D0E61B362E13
S113ACD0D7DCDB022B43DB0AA4460C0DC902294353
S113ACE0C90A012E28DC04D1D6075208DF073A43EB
S113ACF05B08EF0A76429041994114D039423BD126
S113AD00B61940414941761C394204D1761C0018D9
S113AD1049413942FAD0B9436746B74208D9A41B1E
S113AD2024052143ADE70042EAD13642E8D1A8E741
S113AD30E40AE1070020A4E7202E0BDD203E1F00DB
S113AD40F340F7415F40012A002257417E42984177
S113AD5091410BE01700F741F2405740F3415A404C
S113AD60B340F3405A407E42904199410A0303D2D2
S113AD70641EB619404149410027641E2405420857
S113AD80AE4178416141F0BC7047FEE74A1812D2E7
S113AD90400DC90208430121C9070843520D40214F
S113ADA00901521A521C06D452421F3201D4D04017
S113ADB07047C017704700207047FEE7FEB50020BB
S113ADC0002001900020012400250020694608701D
S113ADD0E1204002FFF794FB3C48FFF7E4FB02E06C
S113ADE03B48FFF7E0FB6846007801214140200022
S113ADF0C0B2084269D0FFF7F4FC002805D0012056
S113AE00694608703248FFF7CEFBFFF7DFFC0028E5
S113AE10E9D1FFF7CBFC0700387869464870380061
S113AE20FFF721FDC0B2002800D100246846417814
S113AE303800FFF757FDC0B2002800D100243800C5
S113AE40FFF769FDC0B2002800D10024BE783000AD
S113AE50C0B2312807D03000C0B2322803D030004D
S113AE60C0B2332802D10198401C01903000C0B216
S113AE70352803D03000C0B2362809D1019A68467B
S113AE8041783800FFF76FFDC0B2002800D10024DC
S113AE903000C0B2372806D03000C0B2382802D003
S113AEA0F6B2392E00D101252000C0B2002897D077
S113AEB00848FFF778FB2800C0B2002893D000258B
S113AEC001950548FFF76FFB8DE7F7BD20B0000043
S113AED050B0000058B0000034B0000070B401233A
S113AEE0002413E00168001D194202D04D466D1E76
S113AEF049190C60091D121F042AFAD20D00960785
S113AF0001D50C80AD1C1A4000D02C700268001DC5
S113AF10002AE7D170BC704730B401220EE0036808
S113AF20C31844680830144202D04D466D1E64199B
S113AF301D6825601B1D241D091FF9D10168001D12
S113AF400029ECD130BC704710B507497944183159
S113AF50064C7C44163404E0081D0A6889188847A6
S113AF600100A142F8D110BD2C0000004C000000EB
S113AF7072B60448044901600448804762B6044834
S113AF800047000008ED00E000A0000045B000000C
S113AF9005B0000049FFFFFF4401000004E0FF1F6B
S113AFA00000000075FFFFFF0400000064F2FFFFD3
S113AFB000E0FF1F0000000000F00DF8002801D0A1
S113AFC0FFF7C2FF00BF00BF002000BF00BFFFF7B4
S113AFD0F5FE00F002F80120704780B500F002F899
S113AFE001BDFEE70746384600F002F8FBE7000023
S113AFF080B500BF00BF024A11001820ABBEFBE7BA
S113B000260002000548014603B4684680F3098817
S113B01000BF00BF00BF00BFFFF7CEFFA5EDF5FEE8
S113B02053746172742073656E642066696C652163
S113B0300D0A0000436F6D706C65746564210D0A20
S113B04000000000002001490860704700810440AE
S113B0504572726F720D0A003E3E0D0A0000000038
S113B06000480047B9B0000000480047B9B00000EC
S113B07000480047B9B0000000480047B9B00000DC
S113B08000480047B9B0000000480047B9B00000CC
S113B09000480047B9B0000000480047B9B00000BC
S113B0A000480047B9B0000000480047B9B00000AC
S113B0B000480047B9B0000000480047B9B000009C
S903B00547
